{
  "contractName": "Loan",
  "abi": [
    {
      "constant": true,
      "inputs": [],
      "name": "loanTitle",
      "outputs": [
        {
          "name": "",
          "type": "string"
        }
      ],
      "payable": false,
      "stateMutability": "view",
      "type": "function"
    },
    {
      "constant": true,
      "inputs": [
        {
          "name": "",
          "type": "uint256"
        }
      ],
      "name": "rePayments",
      "outputs": [
        {
          "name": "date",
          "type": "string"
        },
        {
          "name": "balance",
          "type": "string"
        },
        {
          "name": "payment",
          "type": "string"
        },
        {
          "name": "interest",
          "type": "string"
        },
        {
          "name": "principal",
          "type": "string"
        },
        {
          "name": "monthToIsPaid",
          "type": "bool"
        }
      ],
      "payable": false,
      "stateMutability": "view",
      "type": "function"
    },
    {
      "constant": true,
      "inputs": [],
      "name": "borrower",
      "outputs": [
        {
          "name": "",
          "type": "address"
        }
      ],
      "payable": false,
      "stateMutability": "view",
      "type": "function"
    },
    {
      "constant": true,
      "inputs": [],
      "name": "lender",
      "outputs": [
        {
          "name": "",
          "type": "address"
        }
      ],
      "payable": false,
      "stateMutability": "view",
      "type": "function"
    },
    {
      "inputs": [
        {
          "name": "_lender",
          "type": "address"
        }
      ],
      "payable": false,
      "stateMutability": "nonpayable",
      "type": "constructor"
    },
    {
      "constant": false,
      "inputs": [
        {
          "name": "_newBorrower",
          "type": "address"
        }
      ],
      "name": "setBorrower",
      "outputs": [],
      "payable": false,
      "stateMutability": "nonpayable",
      "type": "function"
    },
    {
      "constant": false,
      "inputs": [
        {
          "name": "_bytes32Arr",
          "type": "bytes32[]"
        },
        {
          "name": "_newBorrower",
          "type": "address"
        },
        {
          "name": "_loanTitle",
          "type": "string"
        }
      ],
      "name": "addAllRepaymentSchedules",
      "outputs": [],
      "payable": false,
      "stateMutability": "nonpayable",
      "type": "function"
    },
    {
      "constant": true,
      "inputs": [],
      "name": "getRepaymentsCount",
      "outputs": [
        {
          "name": "",
          "type": "uint256"
        }
      ],
      "payable": false,
      "stateMutability": "view",
      "type": "function"
    },
    {
      "constant": true,
      "inputs": [
        {
          "name": "_month",
          "type": "uint256"
        }
      ],
      "name": "checkRepaymentStatus",
      "outputs": [
        {
          "name": "",
          "type": "bool"
        }
      ],
      "payable": false,
      "stateMutability": "view",
      "type": "function"
    },
    {
      "constant": false,
      "inputs": [
        {
          "name": "_month",
          "type": "uint256"
        }
      ],
      "name": "markRePaymentAsPaid",
      "outputs": [],
      "payable": false,
      "stateMutability": "nonpayable",
      "type": "function"
    },
    {
      "constant": false,
      "inputs": [
        {
          "name": "_month",
          "type": "uint256"
        }
      ],
      "name": "markRePaymentAsUnPaid",
      "outputs": [],
      "payable": false,
      "stateMutability": "nonpayable",
      "type": "function"
    },
    {
      "constant": true,
      "inputs": [
        {
          "name": "_data",
          "type": "bytes32"
        }
      ],
      "name": "bytes32ToString",
      "outputs": [
        {
          "name": "",
          "type": "string"
        }
      ],
      "payable": false,
      "stateMutability": "pure",
      "type": "function"
    }
  ],
  "bytecode": "0x608060405234801561001057600080fd5b506040516020806114d18339810180604052602081101561003057600080fd5b8101908080519060200190929190505050806000806101000a81548173ffffffffffffffffffffffffffffffffffffffff021916908373ffffffffffffffffffffffffffffffffffffffff16021790555050611440806100916000396000f3fe6080604052600436106100af576000357c0100000000000000000000000000000000000000000000000000000000900463ffffffff16806308c309d3146100b45780630c09483f146100ef5780630e67f8a61461017f5780631e06465d146103ee5780637df1f1b91461056a578063905c7f95146105c15780639201de55146105ec578063bcead63e146106a0578063c762d5f7146106f7578063cf21856d14610748578063dec401261461079b575b600080fd5b3480156100c057600080fd5b506100ed600480360360208110156100d757600080fd5b81019080803590602001909291905050506107d6565b005b3480156100fb57600080fd5b5061010461086d565b6040518080602001828103825283818151815260200191508051906020019080838360005b83811015610144578082015181840152602081019050610129565b50505050905090810190601f1680156101715780820380516001836020036101000a031916815260200191505b509250505060405180910390f35b34801561018b57600080fd5b506101b8600480360360208110156101a257600080fd5b810190808035906020019092919050505061090b565b6040518080602001806020018060200180602001806020018715151515815260200186810386528c818151815260200191508051906020019080838360005b838110156102125780820151818401526020810190506101f7565b50505050905090810190601f16801561023f5780820380516001836020036101000a031916815260200191505b5086810385528b818151815260200191508051906020019080838360005b8381101561027857808201518184015260208101905061025d565b50505050905090810190601f1680156102a55780820380516001836020036101000a031916815260200191505b5086810384528a818151815260200191508051906020019080838360005b838110156102de5780820151818401526020810190506102c3565b50505050905090810190601f16801561030b5780820380516001836020036101000a031916815260200191505b50868103835289818151815260200191508051906020019080838360005b83811015610344578082015181840152602081019050610329565b50505050905090810190601f1680156103715780820380516001836020036101000a031916815260200191505b50868103825288818151815260200191508051906020019080838360005b838110156103aa57808201518184015260208101905061038f565b50505050905090810190601f1680156103d75780820380516001836020036101000a031916815260200191505b509b50505050505050505050505060405180910390f35b3480156103fa57600080fd5b506105686004803603606081101561041157600080fd5b810190808035906020019064010000000081111561042e57600080fd5b82018360208201111561044057600080fd5b8035906020019184602083028401116401000000008311171561046257600080fd5b919080806020026020016040519081016040528093929190818152602001838360200280828437600081840152601f19601f820116905080830192505050505050509192919290803573ffffffffffffffffffffffffffffffffffffffff169060200190929190803590602001906401000000008111156104e257600080fd5b8201836020820111156104f457600080fd5b8035906020019184600183028401116401000000008311171561051657600080fd5b91908080601f016020809104026020016040519081016040528093929190818152602001838380828437600081840152601f19601f820116905080830192505050505050509192919290505050610c5b565b005b34801561057657600080fd5b5061057f610f2d565b604051808273ffffffffffffffffffffffffffffffffffffffff1673ffffffffffffffffffffffffffffffffffffffff16815260200191505060405180910390f35b3480156105cd57600080fd5b506105d6610f53565b6040518082815260200191505060405180910390f35b3480156105f857600080fd5b506106256004803603602081101561060f57600080fd5b8101908080359060200190929190505050610f60565b6040518080602001828103825283818151815260200191508051906020019080838360005b8381101561066557808201518184015260208101905061064a565b50505050905090810190601f1680156106925780820380516001836020036101000a031916815260200191505b509250505060405180910390f35b3480156106ac57600080fd5b506106b561115d565b604051808273ffffffffffffffffffffffffffffffffffffffff1673ffffffffffffffffffffffffffffffffffffffff16815260200191505060405180910390f35b34801561070357600080fd5b506107466004803603602081101561071a57600080fd5b81019080803573ffffffffffffffffffffffffffffffffffffffff169060200190929190505050611182565b005b34801561075457600080fd5b506107816004803603602081101561076b57600080fd5b8101908080359060200190929190505050611221565b604051808215151515815260200191505060405180910390f35b3480156107a757600080fd5b506107d4600480360360208110156107be57600080fd5b8101908080359060200190929190505050611258565b005b6000809054906101000a900473ffffffffffffffffffffffffffffffffffffffff1673ffffffffffffffffffffffffffffffffffffffff163373ffffffffffffffffffffffffffffffffffffffff1614151561083157600080fd5b600160038281548110151561084257fe5b906000526020600020906006020160050160006101000a81548160ff02191690831515021790555050565b60028054600181600116156101000203166002900480601f0160208091040260200160405190810160405280929190818152602001828054600181600116156101000203166002900480156109035780601f106108d857610100808354040283529160200191610903565b820191906000526020600020905b8154815290600101906020018083116108e657829003601f168201915b505050505081565b60038181548110151561091a57fe5b9060005260206000209060060201600091509050806000018054600181600116156101000203166002900480601f0160208091040260200160405190810160405280929190818152602001828054600181600116156101000203166002900480156109c65780601f1061099b576101008083540402835291602001916109c6565b820191906000526020600020905b8154815290600101906020018083116109a957829003601f168201915b505050505090806001018054600181600116156101000203166002900480601f016020809104026020016040519081016040528092919081815260200182805460018160011615610100020316600290048015610a645780601f10610a3957610100808354040283529160200191610a64565b820191906000526020600020905b815481529060010190602001808311610a4757829003601f168201915b505050505090806002018054600181600116156101000203166002900480601f016020809104026020016040519081016040528092919081815260200182805460018160011615610100020316600290048015610b025780601f10610ad757610100808354040283529160200191610b02565b820191906000526020600020905b815481529060010190602001808311610ae557829003601f168201915b505050505090806003018054600181600116156101000203166002900480601f016020809104026020016040519081016040528092919081815260200182805460018160011615610100020316600290048015610ba05780601f10610b7557610100808354040283529160200191610ba0565b820191906000526020600020905b815481529060010190602001808311610b8357829003601f168201915b505050505090806004018054600181600116156101000203166002900480601f016020809104026020016040519081016040528092919081815260200182805460018160011615610100020316600290048015610c3e5780601f10610c1357610100808354040283529160200191610c3e565b820191906000526020600020905b815481529060010190602001808311610c2157829003601f168201915b5050505050908060050160009054906101000a900460ff16905086565b6000809054906101000a900473ffffffffffffffffffffffffffffffffffffffff1673ffffffffffffffffffffffffffffffffffffffff163373ffffffffffffffffffffffffffffffffffffffff16141515610cb657600080fd5b82601e815110158015610ccb57506064815111155b1515610cd657600080fd5b8160029080519060200190610cec9291906112ef565b5082600160006101000a81548173ffffffffffffffffffffffffffffffffffffffff021916908373ffffffffffffffffffffffffffffffffffffffff16021790555060008090505b600585510381111515610f26576060610d638683815181101515610d5457fe5b90602001906020020151610f60565b90506060610d8a8760018501815181101515610d7b57fe5b90602001906020020151610f60565b90506060610db18860028601815181101515610da257fe5b90602001906020020151610f60565b90506060610dd88960038701815181101515610dc957fe5b90602001906020020151610f60565b90506060610dff8a60048801815181101515610df057fe5b90602001906020020151610f60565b90506001600360c06040519081016040528088815260200187815260200186815260200185815260200184815260200160001515815250908060018154018082558091505090600182039060005260206000209060060201600090919290919091506000820151816000019080519060200190610e7d92919061136f565b506020820151816001019080519060200190610e9a92919061136f565b506040820151816002019080519060200190610eb792919061136f565b506060820151816003019080519060200190610ed492919061136f565b506080820151816004019080519060200190610ef192919061136f565b5060a08201518160050160006101000a81548160ff021916908315150217905550505050505050505050600581019050610d34565b5050505050565b600160009054906101000a900473ffffffffffffffffffffffffffffffffffffffff1681565b6000600380549050905090565b60608060206040519080825280601f01601f191660200182016040528015610f975781602001600182028038833980820191505090505b509050600080905060008090505b60208110156110665760008160080260020a866001900402600102905060007f010000000000000000000000000000000000000000000000000000000000000002817effffffffffffffffffffffffffffffffffffffffffffffffffffffffffffff19161415156110585780848481518110151561101f57fe5b9060200101907effffffffffffffffffffffffffffffffffffffffffffffffffffffffffffff1916908160001a90535082806001019350505b508080600101915050610fa5565b506060816040519080825280601f01601f19166020018201604052801561109c5781602001600182028038833980820191505090505b50905060008090505b828110156111515783818151811015156110bb57fe5b9060200101517f010000000000000000000000000000000000000000000000000000000000000090047f010000000000000000000000000000000000000000000000000000000000000002828281518110151561111457fe5b9060200101907effffffffffffffffffffffffffffffffffffffffffffffffffffffffffffff1916908160001a90535080806001019150506110a5565b50809350505050919050565b6000809054906101000a900473ffffffffffffffffffffffffffffffffffffffff1681565b6000809054906101000a900473ffffffffffffffffffffffffffffffffffffffff1673ffffffffffffffffffffffffffffffffffffffff163373ffffffffffffffffffffffffffffffffffffffff161415156111dd57600080fd5b80600160006101000a81548173ffffffffffffffffffffffffffffffffffffffff021916908373ffffffffffffffffffffffffffffffffffffffff16021790555050565b600060038281548110151561123257fe5b906000526020600020906006020160050160009054906101000a900460ff169050919050565b6000809054906101000a900473ffffffffffffffffffffffffffffffffffffffff1673ffffffffffffffffffffffffffffffffffffffff163373ffffffffffffffffffffffffffffffffffffffff161415156112b357600080fd5b60006003828154811015156112c457fe5b906000526020600020906006020160050160006101000a81548160ff02191690831515021790555050565b828054600181600116156101000203166002900490600052602060002090601f016020900481019282601f1061133057805160ff191683800117855561135e565b8280016001018555821561135e579182015b8281111561135d578251825591602001919060010190611342565b5b50905061136b91906113ef565b5090565b828054600181600116156101000203166002900490600052602060002090601f016020900481019282601f106113b057805160ff19168380011785556113de565b828001600101855582156113de579182015b828111156113dd5782518255916020019190600101906113c2565b5b5090506113eb91906113ef565b5090565b61141191905b8082111561140d5760008160009055506001016113f5565b5090565b9056fea165627a7a723058202c632a80809603a123017e43dfa281d690f6bf92058fe54b6daa35b96708fb340029",
  "source": "pragma solidity ^0.5.0;\n\ncontract Loan {\n    address public lender;\n    address public borrower;\n    string public loanTitle;\n    struct RePayment {\n        string date;\n        string balance;\n        string payment;\n        string interest;\n        string principal;\n        bool monthToIsPaid;\n    }\n\n    RePayment[] public rePayments;\n\n    modifier onlyLender() {\n        require(msg.sender == lender);\n        _;\n    }\n\n    modifier onlyBorrower() {\n        require(msg.sender == borrower);\n        _;\n    }\n\n    modifier minimumAndMaximumTenor(bytes32[] memory _bytes32Arr) {\n        require(_bytes32Arr.length >= (6 * 5) && _bytes32Arr.length <= (20 * 5));\n        _;\n    }\n\n    constructor(address _lender) public {\n        lender = _lender;\n\n    }\n\n    function setBorrower(address _newBorrower) public onlyLender {\n        borrower = _newBorrower;\n    }\n\n    function addAllRepaymentSchedules(bytes32[] memory _bytes32Arr, address _newBorrower, string memory _loanTitle) public onlyLender minimumAndMaximumTenor(_bytes32Arr) {\n        loanTitle = _loanTitle;\n        borrower = _newBorrower;\n        for (uint i = 0; i <= _bytes32Arr.length - 5; i+=5) {\n            string memory date = bytes32ToString(_bytes32Arr[i]);\n            string memory balance = bytes32ToString(_bytes32Arr[i + 1]);\n            string memory payment = bytes32ToString(_bytes32Arr[i + 2]);\n            string memory interest = bytes32ToString(_bytes32Arr[i + 3]);\n            string memory principal = bytes32ToString(_bytes32Arr[i + 4]);\n            rePayments.push(RePayment(date, balance, payment, interest, principal, false)) - 1;\n        }\n        // borrowerToRePayments[borrower] = rePayments;\n    }\n\n    function getRepaymentsCount() public view returns(uint) {\n        return rePayments.length;\n    }\n\n    function checkRepaymentStatus(uint _month) public view returns (bool) {\n        // return borrowerToRePayments[borrower][_month].monthToIsPaid;\n        return rePayments[_month].monthToIsPaid;\n    }\n\n    function markRePaymentAsPaid(uint _month) onlyLender public  {\n        // borrowerToRePayments[borrower][_month].monthToIsPaid = true;\n        rePayments[_month].monthToIsPaid = true;\n    }\n\n    function markRePaymentAsUnPaid(uint _month) onlyLender public  {\n        // borrowerToRePayments[borrower][_month].monthToIsPaid = true;\n        rePayments[_month].monthToIsPaid = false;\n    }\n\n    function bytes32ToString(bytes32 _data) pure public returns (string memory) {\n        // create new bytes with a length of 32\n        // needs to be bytes type rather than bytes32 in order to be writeable\n        bytes memory _bytesContainer = new bytes(32);\n        // uint to keep track of actual character length of string\n        // bytes32 is always 32 characters long the string may be shorter\n        uint256 _charCount = 0;\n        // loop through every element in bytes32\n        for (uint256 _bytesCounter = 0; _bytesCounter < 32; _bytesCounter++) {\n            /*\n            TLDR: takes a single character from bytes based on counter\n            convert bytes32 data to uint in order to increase the number enough to\n            shift bytes further left while pushing out leftmost bytes\n            then convert uint256 data back to bytes32\n            then convert to bytes1 where everything but the leftmost hex value (byte)\n            is cutoff leaving only the leftmost byte\n            */\n            bytes1 _char = bytes1(bytes32(uint256(_data) * 2 ** (8 * _bytesCounter)));\n            // if the character is not empty\n            if (_char != 0) {\n              // add to bytes representing string\n              _bytesContainer[_charCount] = _char;\n              // increment count so we know length later\n              _charCount++;\n            }\n        }\n\n        // create dynamically sized bytes array to use for trimming\n        bytes memory _bytesContainerTrimmed = new bytes(_charCount);\n\n        // loop through for character length of string\n        for (uint256 _charCounter = 0; _charCounter < _charCount; _charCounter++) {\n            // add each character to trimmed bytes container, leaving out extra\n            _bytesContainerTrimmed[_charCounter] = _bytesContainer[_charCounter];\n         }\n\n        // return correct length string with no padding\n        return string(_bytesContainerTrimmed);\n    }\n}\n",
  "sourcePath": "/Users/dju/Documents/inside document/danacita/credit-line-smart-contract-react/contracts/Loan.sol",
  "compiler": {
    "name": "solc",
    "version": "0.5.0+commit.1d4f565a.Emscripten.clang"
  },
  "schemaVersion": "3.0.3",
  "updatedAt": "2019-03-24T07:00:21.711Z",
  "devdoc": {
    "methods": {}
  },
  "userdoc": {
    "methods": {}
  }
}