{
  "contractName": "LoanFactory",
  "abi": [
    {
      "constant": true,
      "inputs": [
        {
          "name": "",
          "type": "uint256"
        }
      ],
      "name": "deployedLoans",
      "outputs": [
        {
          "name": "",
          "type": "address"
        }
      ],
      "payable": false,
      "stateMutability": "view",
      "type": "function",
      "signature": "0x7a855e8a"
    },
    {
      "constant": false,
      "inputs": [],
      "name": "createLoan",
      "outputs": [],
      "payable": false,
      "stateMutability": "nonpayable",
      "type": "function",
      "signature": "0x65ec1a45"
    },
    {
      "constant": true,
      "inputs": [],
      "name": "getDeployedLoans",
      "outputs": [
        {
          "name": "",
          "type": "address[]"
        }
      ],
      "payable": false,
      "stateMutability": "view",
      "type": "function",
      "signature": "0xbf7724cc"
    }
  ],
  "bytecode": "0x608060405234801561001057600080fd5b50611473806100206000396000f3fe608060405260043610610057576000357c0100000000000000000000000000000000000000000000000000000000900463ffffffff16806365ec1a451461005c5780637a855e8a14610073578063bf7724cc146100ee575b600080fd5b34801561006857600080fd5b5061007161015a565b005b34801561007f57600080fd5b506100ac6004803603602081101561009657600080fd5b8101908080359060200190929190505050610223565b604051808273ffffffffffffffffffffffffffffffffffffffff1673ffffffffffffffffffffffffffffffffffffffff16815260200191505060405180910390f35b3480156100fa57600080fd5b50610103610261565b6040518080602001828103825283818151815260200191508051906020019060200280838360005b8381101561014657808201518184015260208101905061012b565b505050509050019250505060405180910390f35b6000336101656102ef565b808273ffffffffffffffffffffffffffffffffffffffff1673ffffffffffffffffffffffffffffffffffffffff168152602001915050604051809103906000f0801580156101b7573d6000803e3d6000fd5b50905060008190806001815401808255809150509060018203906000526020600020016000909192909190916101000a81548173ffffffffffffffffffffffffffffffffffffffff021916908373ffffffffffffffffffffffffffffffffffffffff1602179055505050565b60008181548110151561023257fe5b906000526020600020016000915054906101000a900473ffffffffffffffffffffffffffffffffffffffff1681565b606060008054806020026020016040519081016040528092919081815260200182805480156102e557602002820191906000526020600020905b8160009054906101000a900473ffffffffffffffffffffffffffffffffffffffff1673ffffffffffffffffffffffffffffffffffffffff168152602001906001019080831161029b575b5050505050905090565b604051611148806103008339019056fe608060405234801561001057600080fd5b506040516020806111488339810180604052602081101561003057600080fd5b8101908080519060200190929190505050806000806101000a81548173ffffffffffffffffffffffffffffffffffffffff021916908373ffffffffffffffffffffffffffffffffffffffff160217905550506110b7806100916000396000f3fe60806040526004361061008e576000357c0100000000000000000000000000000000000000000000000000000000900463ffffffff16806308c309d3146100935780630e67f8a6146100ce57806313bd7c791461033d5780637df1f1b9146104225780639201de5514610479578063bcead63e1461052d578063c762d5f714610584578063cf21856d146105d5575b600080fd5b34801561009f57600080fd5b506100cc600480360360208110156100b657600080fd5b8101908080359060200190929190505050610628565b005b3480156100da57600080fd5b50610107600480360360208110156100f157600080fd5b81019080803590602001909291905050506106bf565b6040518080602001806020018060200180602001806020018715151515815260200186810386528c818151815260200191508051906020019080838360005b83811015610161578082015181840152602081019050610146565b50505050905090810190601f16801561018e5780820380516001836020036101000a031916815260200191505b5086810385528b818151815260200191508051906020019080838360005b838110156101c75780820151818401526020810190506101ac565b50505050905090810190601f1680156101f45780820380516001836020036101000a031916815260200191505b5086810384528a818151815260200191508051906020019080838360005b8381101561022d578082015181840152602081019050610212565b50505050905090810190601f16801561025a5780820380516001836020036101000a031916815260200191505b50868103835289818151815260200191508051906020019080838360005b83811015610293578082015181840152602081019050610278565b50505050905090810190601f1680156102c05780820380516001836020036101000a031916815260200191505b50868103825288818151815260200191508051906020019080838360005b838110156102f95780820151818401526020810190506102de565b50505050905090810190601f1680156103265780820380516001836020036101000a031916815260200191505b509b50505050505050505050505060405180910390f35b34801561034957600080fd5b506104206004803603604081101561036057600080fd5b810190808035906020019064010000000081111561037d57600080fd5b82018360208201111561038f57600080fd5b803590602001918460208302840111640100000000831117156103b157600080fd5b919080806020026020016040519081016040528093929190818152602001838360200280828437600081840152601f19601f820116905080830192505050505050509192919290803573ffffffffffffffffffffffffffffffffffffffff169060200190929190505050610a0f565b005b34801561042e57600080fd5b50610437610cc8565b604051808273ffffffffffffffffffffffffffffffffffffffff1673ffffffffffffffffffffffffffffffffffffffff16815260200191505060405180910390f35b34801561048557600080fd5b506104b26004803603602081101561049c57600080fd5b8101908080359060200190929190505050610cee565b6040518080602001828103825283818151815260200191508051906020019080838360005b838110156104f25780820151818401526020810190506104d7565b50505050905090810190601f16801561051f5780820380516001836020036101000a031916815260200191505b509250505060405180910390f35b34801561053957600080fd5b50610542610eeb565b604051808273ffffffffffffffffffffffffffffffffffffffff1673ffffffffffffffffffffffffffffffffffffffff16815260200191505060405180910390f35b34801561059057600080fd5b506105d3600480360360208110156105a757600080fd5b81019080803573ffffffffffffffffffffffffffffffffffffffff169060200190929190505050610f10565b005b3480156105e157600080fd5b5061060e600480360360208110156105f857600080fd5b8101908080359060200190929190505050610faf565b604051808215151515815260200191505060405180910390f35b6000809054906101000a900473ffffffffffffffffffffffffffffffffffffffff1673ffffffffffffffffffffffffffffffffffffffff163373ffffffffffffffffffffffffffffffffffffffff1614151561068357600080fd5b600160028281548110151561069457fe5b906000526020600020906006020160050160006101000a81548160ff02191690831515021790555050565b6002818154811015156106ce57fe5b9060005260206000209060060201600091509050806000018054600181600116156101000203166002900480601f01602080910402602001604051908101604052809291908181526020018280546001816001161561010002031660029004801561077a5780601f1061074f5761010080835404028352916020019161077a565b820191906000526020600020905b81548152906001019060200180831161075d57829003601f168201915b505050505090806001018054600181600116156101000203166002900480601f0160208091040260200160405190810160405280929190818152602001828054600181600116156101000203166002900480156108185780601f106107ed57610100808354040283529160200191610818565b820191906000526020600020905b8154815290600101906020018083116107fb57829003601f168201915b505050505090806002018054600181600116156101000203166002900480601f0160208091040260200160405190810160405280929190818152602001828054600181600116156101000203166002900480156108b65780601f1061088b576101008083540402835291602001916108b6565b820191906000526020600020905b81548152906001019060200180831161089957829003601f168201915b505050505090806003018054600181600116156101000203166002900480601f0160208091040260200160405190810160405280929190818152602001828054600181600116156101000203166002900480156109545780601f1061092957610100808354040283529160200191610954565b820191906000526020600020905b81548152906001019060200180831161093757829003601f168201915b505050505090806004018054600181600116156101000203166002900480601f0160208091040260200160405190810160405280929190818152602001828054600181600116156101000203166002900480156109f25780601f106109c7576101008083540402835291602001916109f2565b820191906000526020600020905b8154815290600101906020018083116109d557829003601f168201915b5050505050908060050160009054906101000a900460ff16905086565b6000809054906101000a900473ffffffffffffffffffffffffffffffffffffffff1673ffffffffffffffffffffffffffffffffffffffff163373ffffffffffffffffffffffffffffffffffffffff16141515610a6a57600080fd5b81601e815110158015610a7f57506064815111155b1515610a8a57600080fd5b81600160006101000a81548173ffffffffffffffffffffffffffffffffffffffff021916908373ffffffffffffffffffffffffffffffffffffffff16021790555060008090505b6005845103811015610cc2576060610aff8583815181101515610af057fe5b90602001906020020151610cee565b90506060610b268660018501815181101515610b1757fe5b90602001906020020151610cee565b90506060610b4d8760028601815181101515610b3e57fe5b90602001906020020151610cee565b90506060610b748860038701815181101515610b6557fe5b90602001906020020151610cee565b90506060610b9b8960048801815181101515610b8c57fe5b90602001906020020151610cee565b90506001600260c06040519081016040528088815260200187815260200186815260200185815260200184815260200160001515815250908060018154018082558091505090600182039060005260206000209060060201600090919290919091506000820151816000019080519060200190610c19929190610fe6565b506020820151816001019080519060200190610c36929190610fe6565b506040820151816002019080519060200190610c53929190610fe6565b506060820151816003019080519060200190610c70929190610fe6565b506080820151816004019080519060200190610c8d929190610fe6565b5060a08201518160050160006101000a81548160ff021916908315150217905550505050505050505050600581019050610ad1565b50505050565b600160009054906101000a900473ffffffffffffffffffffffffffffffffffffffff1681565b60608060206040519080825280601f01601f191660200182016040528015610d255781602001600182028038833980820191505090505b509050600080905060008090505b6020811015610df45760008160080260020a866001900402600102905060007f010000000000000000000000000000000000000000000000000000000000000002817effffffffffffffffffffffffffffffffffffffffffffffffffffffffffffff1916141515610de657808484815181101515610dad57fe5b9060200101907effffffffffffffffffffffffffffffffffffffffffffffffffffffffffffff1916908160001a90535082806001019350505b508080600101915050610d33565b506060816040519080825280601f01601f191660200182016040528015610e2a5781602001600182028038833980820191505090505b50905060008090505b82811015610edf578381815181101515610e4957fe5b9060200101517f010000000000000000000000000000000000000000000000000000000000000090047f0100000000000000000000000000000000000000000000000000000000000000028282815181101515610ea257fe5b9060200101907effffffffffffffffffffffffffffffffffffffffffffffffffffffffffffff1916908160001a9053508080600101915050610e33565b50809350505050919050565b6000809054906101000a900473ffffffffffffffffffffffffffffffffffffffff1681565b6000809054906101000a900473ffffffffffffffffffffffffffffffffffffffff1673ffffffffffffffffffffffffffffffffffffffff163373ffffffffffffffffffffffffffffffffffffffff16141515610f6b57600080fd5b80600160006101000a81548173ffffffffffffffffffffffffffffffffffffffff021916908373ffffffffffffffffffffffffffffffffffffffff16021790555050565b6000600282815481101515610fc057fe5b906000526020600020906006020160050160009054906101000a900460ff169050919050565b828054600181600116156101000203166002900490600052602060002090601f016020900481019282601f1061102757805160ff1916838001178555611055565b82800160010185558215611055579182015b82811115611054578251825591602001919060010190611039565b5b5090506110629190611066565b5090565b61108891905b8082111561108457600081600090555060010161106c565b5090565b9056fea165627a7a723058204472e06a6dcf6957e36d2d7bbc41f7dd2ffb9071afb4994b6cbe04de0cbd51940029a165627a7a72305820c6736539ffa9d71f6454bd62dd702a436159e61794926d49deae098780f58be60029",
  "source": "pragma solidity ^0.5.0;\nimport \"./Loan.sol\";\ncontract LoanFactory {\n    address[] public deployedLoans;\n\n\n    function createLoan() public {\n        address _newLoan = address(new Loan(msg.sender));\n        deployedLoans.push(_newLoan);\n    }\n\n    function getDeployedLoans() public view returns(address[] memory) {\n        return deployedLoans;\n    }\n}\n",
  "sourcePath": "/Users/dju/Documents/inside document/danacita/credit-line-smart-contract-react/contracts/LoanFactory.sol",
  "compiler": {
    "name": "solc",
    "version": "0.5.0+commit.1d4f565a.Emscripten.clang"
  },
  "schemaVersion": "3.0.3",
  "updatedAt": "2019-03-18T06:07:19.677Z",
  "devdoc": {
    "methods": {}
  },
  "userdoc": {
    "methods": {}
  }
}