{
  "contractName": "Loan",
  "abi": [
    {
      "constant": true,
      "inputs": [
        {
          "name": "",
          "type": "uint256"
        }
      ],
      "name": "rePayments",
      "outputs": [
        {
          "name": "date",
          "type": "string"
        },
        {
          "name": "balance",
          "type": "string"
        },
        {
          "name": "payment",
          "type": "string"
        },
        {
          "name": "interest",
          "type": "string"
        },
        {
          "name": "principal",
          "type": "string"
        },
        {
          "name": "monthToIsPaid",
          "type": "bool"
        }
      ],
      "payable": false,
      "stateMutability": "view",
      "type": "function",
      "signature": "0x0e67f8a6"
    },
    {
      "constant": true,
      "inputs": [],
      "name": "borrower",
      "outputs": [
        {
          "name": "",
          "type": "address"
        }
      ],
      "payable": false,
      "stateMutability": "view",
      "type": "function",
      "signature": "0x7df1f1b9"
    },
    {
      "constant": true,
      "inputs": [],
      "name": "lender",
      "outputs": [
        {
          "name": "",
          "type": "address"
        }
      ],
      "payable": false,
      "stateMutability": "view",
      "type": "function",
      "signature": "0xbcead63e"
    },
    {
      "constant": true,
      "inputs": [
        {
          "name": "",
          "type": "address"
        }
      ],
      "name": "borrowerToLender",
      "outputs": [
        {
          "name": "",
          "type": "address"
        }
      ],
      "payable": false,
      "stateMutability": "view",
      "type": "function",
      "signature": "0xc216f50b"
    },
    {
      "constant": true,
      "inputs": [
        {
          "name": "",
          "type": "address"
        },
        {
          "name": "",
          "type": "uint256"
        }
      ],
      "name": "borrowerToRePayments",
      "outputs": [
        {
          "name": "date",
          "type": "string"
        },
        {
          "name": "balance",
          "type": "string"
        },
        {
          "name": "payment",
          "type": "string"
        },
        {
          "name": "interest",
          "type": "string"
        },
        {
          "name": "principal",
          "type": "string"
        },
        {
          "name": "monthToIsPaid",
          "type": "bool"
        }
      ],
      "payable": false,
      "stateMutability": "view",
      "type": "function",
      "signature": "0xcca43008"
    },
    {
      "inputs": [
        {
          "name": "_borrower",
          "type": "address"
        }
      ],
      "payable": false,
      "stateMutability": "nonpayable",
      "type": "constructor",
      "signature": "constructor"
    },
    {
      "constant": false,
      "inputs": [
        {
          "name": "_bytes32Arr",
          "type": "bytes32[]"
        }
      ],
      "name": "addAllRepaymentSchedules",
      "outputs": [],
      "payable": false,
      "stateMutability": "nonpayable",
      "type": "function",
      "signature": "0x4c2da5b2"
    },
    {
      "constant": true,
      "inputs": [
        {
          "name": "_month",
          "type": "uint256"
        }
      ],
      "name": "checkRepaymentStatus",
      "outputs": [
        {
          "name": "",
          "type": "bool"
        }
      ],
      "payable": false,
      "stateMutability": "view",
      "type": "function",
      "signature": "0xcf21856d"
    },
    {
      "constant": false,
      "inputs": [
        {
          "name": "_month",
          "type": "uint256"
        }
      ],
      "name": "markRePaymentAsPaid",
      "outputs": [],
      "payable": false,
      "stateMutability": "nonpayable",
      "type": "function",
      "signature": "0x08c309d3"
    },
    {
      "constant": true,
      "inputs": [
        {
          "name": "_data",
          "type": "bytes32"
        }
      ],
      "name": "bytes32ToString",
      "outputs": [
        {
          "name": "",
          "type": "string"
        }
      ],
      "payable": false,
      "stateMutability": "pure",
      "type": "function",
      "signature": "0x9201de55"
    }
  ],
  "bytecode": "0x608060405234801561001057600080fd5b50604051602080611b9a8339810180604052602081101561003057600080fd5b8101908080519060200190929190505050336000806101000a81548173ffffffffffffffffffffffffffffffffffffffff021916908373ffffffffffffffffffffffffffffffffffffffff16021790555080600160006101000a81548173ffffffffffffffffffffffffffffffffffffffff021916908373ffffffffffffffffffffffffffffffffffffffff1602179055503360046000600160009054906101000a900473ffffffffffffffffffffffffffffffffffffffff1673ffffffffffffffffffffffffffffffffffffffff1673ffffffffffffffffffffffffffffffffffffffff16815260200190815260200160002060006101000a81548173ffffffffffffffffffffffffffffffffffffffff021916908373ffffffffffffffffffffffffffffffffffffffff16021790555050611a28806101726000396000f3fe608060405260043610610099576000357c0100000000000000000000000000000000000000000000000000000000900463ffffffff16806308c309d31461009e5780630e67f8a6146100d95780634c2da5b2146103485780637df1f1b91461040d5780639201de5514610464578063bcead63e14610518578063c216f50b1461056f578063cca4300814610600578063cf21856d1461088f575b600080fd5b3480156100aa57600080fd5b506100d7600480360360208110156100c157600080fd5b81019080803590602001909291905050506108e2565b005b3480156100e557600080fd5b50610112600480360360208110156100fc57600080fd5b8101908080359060200190929190505050610a11565b6040518080602001806020018060200180602001806020018715151515815260200186810386528c818151815260200191508051906020019080838360005b8381101561016c578082015181840152602081019050610151565b50505050905090810190601f1680156101995780820380516001836020036101000a031916815260200191505b5086810385528b818151815260200191508051906020019080838360005b838110156101d25780820151818401526020810190506101b7565b50505050905090810190601f1680156101ff5780820380516001836020036101000a031916815260200191505b5086810384528a818151815260200191508051906020019080838360005b8381101561023857808201518184015260208101905061021d565b50505050905090810190601f1680156102655780820380516001836020036101000a031916815260200191505b50868103835289818151815260200191508051906020019080838360005b8381101561029e578082015181840152602081019050610283565b50505050905090810190601f1680156102cb5780820380516001836020036101000a031916815260200191505b50868103825288818151815260200191508051906020019080838360005b838110156103045780820151818401526020810190506102e9565b50505050905090810190601f1680156103315780820380516001836020036101000a031916815260200191505b509b50505050505050505050505060405180910390f35b34801561035457600080fd5b5061040b6004803603602081101561036b57600080fd5b810190808035906020019064010000000081111561038857600080fd5b82018360208201111561039a57600080fd5b803590602001918460208302840111640100000000831117156103bc57600080fd5b919080806020026020016040519081016040528093929190818152602001838360200280828437600081840152601f19601f820116905080830192505050505050509192919290505050610d61565b005b34801561041957600080fd5b5061042261104a565b604051808273ffffffffffffffffffffffffffffffffffffffff1673ffffffffffffffffffffffffffffffffffffffff16815260200191505060405180910390f35b34801561047057600080fd5b5061049d6004803603602081101561048757600080fd5b8101908080359060200190929190505050611070565b6040518080602001828103825283818151815260200191508051906020019080838360005b838110156104dd5780820151818401526020810190506104c2565b50505050905090810190601f16801561050a5780820380516001836020036101000a031916815260200191505b509250505060405180910390f35b34801561052457600080fd5b5061052d61126d565b604051808273ffffffffffffffffffffffffffffffffffffffff1673ffffffffffffffffffffffffffffffffffffffff16815260200191505060405180910390f35b34801561057b57600080fd5b506105be6004803603602081101561059257600080fd5b81019080803573ffffffffffffffffffffffffffffffffffffffff169060200190929190505050611292565b604051808273ffffffffffffffffffffffffffffffffffffffff1673ffffffffffffffffffffffffffffffffffffffff16815260200191505060405180910390f35b34801561060c57600080fd5b506106596004803603604081101561062357600080fd5b81019080803573ffffffffffffffffffffffffffffffffffffffff169060200190929190803590602001909291905050506112c5565b6040518080602001806020018060200180602001806020018715151515815260200186810386528c818151815260200191508051906020019080838360005b838110156106b3578082015181840152602081019050610698565b50505050905090810190601f1680156106e05780820380516001836020036101000a031916815260200191505b5086810385528b818151815260200191508051906020019080838360005b838110156107195780820151818401526020810190506106fe565b50505050905090810190601f1680156107465780820380516001836020036101000a031916815260200191505b5086810384528a818151815260200191508051906020019080838360005b8381101561077f578082015181840152602081019050610764565b50505050905090810190601f1680156107ac5780820380516001836020036101000a031916815260200191505b50868103835289818151815260200191508051906020019080838360005b838110156107e55780820151818401526020810190506107ca565b50505050905090810190601f1680156108125780820380516001836020036101000a031916815260200191505b50868103825288818151815260200191508051906020019080838360005b8381101561084b578082015181840152602081019050610830565b50505050905090810190601f1680156108785780820380516001836020036101000a031916815260200191505b509b50505050505050505050505060405180910390f35b34801561089b57600080fd5b506108c8600480360360208110156108b257600080fd5b8101908080359060200190929190505050611622565b604051808215151515815260200191505060405180910390f35b6000809054906101000a900473ffffffffffffffffffffffffffffffffffffffff1673ffffffffffffffffffffffffffffffffffffffff163373ffffffffffffffffffffffffffffffffffffffff1614151561093d57600080fd5b600160036000600160009054906101000a900473ffffffffffffffffffffffffffffffffffffffff1673ffffffffffffffffffffffffffffffffffffffff1673ffffffffffffffffffffffffffffffffffffffff168152602001908152602001600020828154811015156109ad57fe5b906000526020600020906006020160050160006101000a81548160ff02191690831515021790555060016002828154811015156109e657fe5b906000526020600020906006020160050160006101000a81548160ff02191690831515021790555050565b600281815481101515610a2057fe5b9060005260206000209060060201600091509050806000018054600181600116156101000203166002900480601f016020809104026020016040519081016040528092919081815260200182805460018160011615610100020316600290048015610acc5780601f10610aa157610100808354040283529160200191610acc565b820191906000526020600020905b815481529060010190602001808311610aaf57829003601f168201915b505050505090806001018054600181600116156101000203166002900480601f016020809104026020016040519081016040528092919081815260200182805460018160011615610100020316600290048015610b6a5780601f10610b3f57610100808354040283529160200191610b6a565b820191906000526020600020905b815481529060010190602001808311610b4d57829003601f168201915b505050505090806002018054600181600116156101000203166002900480601f016020809104026020016040519081016040528092919081815260200182805460018160011615610100020316600290048015610c085780601f10610bdd57610100808354040283529160200191610c08565b820191906000526020600020905b815481529060010190602001808311610beb57829003601f168201915b505050505090806003018054600181600116156101000203166002900480601f016020809104026020016040519081016040528092919081815260200182805460018160011615610100020316600290048015610ca65780601f10610c7b57610100808354040283529160200191610ca6565b820191906000526020600020905b815481529060010190602001808311610c8957829003601f168201915b505050505090806004018054600181600116156101000203166002900480601f016020809104026020016040519081016040528092919081815260200182805460018160011615610100020316600290048015610d445780601f10610d1957610100808354040283529160200191610d44565b820191906000526020600020905b815481529060010190602001808311610d2757829003601f168201915b5050505050908060050160009054906101000a900460ff16905086565b6000809054906101000a900473ffffffffffffffffffffffffffffffffffffffff1673ffffffffffffffffffffffffffffffffffffffff163373ffffffffffffffffffffffffffffffffffffffff16141515610dbc57600080fd5b80601e815110158015610dd157506064815111155b1515610ddc57600080fd5b60008090505b6005835103811015610fd3576060610e108483815181101515610e0157fe5b90602001906020020151611070565b90506060610e378560018501815181101515610e2857fe5b90602001906020020151611070565b90506060610e5e8660028601815181101515610e4f57fe5b90602001906020020151611070565b90506060610e858760038701815181101515610e7657fe5b90602001906020020151611070565b90506060610eac8860048801815181101515610e9d57fe5b90602001906020020151611070565b90506001600260c06040519081016040528088815260200187815260200186815260200185815260200184815260200160001515815250908060018154018082558091505090600182039060005260206000209060060201600090919290919091506000820151816000019080519060200190610f2a9291906116b8565b506020820151816001019080519060200190610f479291906116b8565b506040820151816002019080519060200190610f649291906116b8565b506060820151816003019080519060200190610f819291906116b8565b506080820151816004019080519060200190610f9e9291906116b8565b5060a08201518160050160006101000a81548160ff021916908315150217905550505050505050505050600581019050610de2565b50600260036000600160009054906101000a900473ffffffffffffffffffffffffffffffffffffffff1673ffffffffffffffffffffffffffffffffffffffff1673ffffffffffffffffffffffffffffffffffffffff168152602001908152602001600020908054611045929190611738565b505050565b600160009054906101000a900473ffffffffffffffffffffffffffffffffffffffff1681565b60608060206040519080825280601f01601f1916602001820160405280156110a75781602001600182028038833980820191505090505b509050600080905060008090505b60208110156111765760008160080260020a866001900402600102905060007f010000000000000000000000000000000000000000000000000000000000000002817effffffffffffffffffffffffffffffffffffffffffffffffffffffffffffff19161415156111685780848481518110151561112f57fe5b9060200101907effffffffffffffffffffffffffffffffffffffffffffffffffffffffffffff1916908160001a90535082806001019350505b5080806001019150506110b5565b506060816040519080825280601f01601f1916602001820160405280156111ac5781602001600182028038833980820191505090505b50905060008090505b828110156112615783818151811015156111cb57fe5b9060200101517f010000000000000000000000000000000000000000000000000000000000000090047f010000000000000000000000000000000000000000000000000000000000000002828281518110151561122457fe5b9060200101907effffffffffffffffffffffffffffffffffffffffffffffffffffffffffffff1916908160001a90535080806001019150506111b5565b50809350505050919050565b6000809054906101000a900473ffffffffffffffffffffffffffffffffffffffff1681565b60046020528060005260406000206000915054906101000a900473ffffffffffffffffffffffffffffffffffffffff1681565b6003602052816000526040600020818154811015156112e057fe5b906000526020600020906006020160009150915050806000018054600181600116156101000203166002900480601f01602080910402602001604051908101604052809291908181526020018280546001816001161561010002031660029004801561138d5780601f106113625761010080835404028352916020019161138d565b820191906000526020600020905b81548152906001019060200180831161137057829003601f168201915b505050505090806001018054600181600116156101000203166002900480601f01602080910402602001604051908101604052809291908181526020018280546001816001161561010002031660029004801561142b5780601f106114005761010080835404028352916020019161142b565b820191906000526020600020905b81548152906001019060200180831161140e57829003601f168201915b505050505090806002018054600181600116156101000203166002900480601f0160208091040260200160405190810160405280929190818152602001828054600181600116156101000203166002900480156114c95780601f1061149e576101008083540402835291602001916114c9565b820191906000526020600020905b8154815290600101906020018083116114ac57829003601f168201915b505050505090806003018054600181600116156101000203166002900480601f0160208091040260200160405190810160405280929190818152602001828054600181600116156101000203166002900480156115675780601f1061153c57610100808354040283529160200191611567565b820191906000526020600020905b81548152906001019060200180831161154a57829003601f168201915b505050505090806004018054600181600116156101000203166002900480601f0160208091040260200160405190810160405280929190818152602001828054600181600116156101000203166002900480156116055780601f106115da57610100808354040283529160200191611605565b820191906000526020600020905b8154815290600101906020018083116115e857829003601f168201915b5050505050908060050160009054906101000a900460ff16905086565b600060036000600160009054906101000a900473ffffffffffffffffffffffffffffffffffffffff1673ffffffffffffffffffffffffffffffffffffffff1673ffffffffffffffffffffffffffffffffffffffff1681526020019081526020016000208281548110151561169257fe5b906000526020600020906006020160050160009054906101000a900460ff169050919050565b828054600181600116156101000203166002900490600052602060002090601f016020900481019282601f106116f957805160ff1916838001178555611727565b82800160010185558215611727579182015b8281111561172657825182559160200191906001019061170b565b5b5090506117349190611885565b5090565b8280548282559060005260206000209060060281019282156118745760005260206000209160060282015b82811115611873578282600082018160000190805460018160011615610100020316600290046117949291906118aa565b50600182018160010190805460018160011615610100020316600290046117bc9291906118aa565b50600282018160020190805460018160011615610100020316600290046117e49291906118aa565b506003820181600301908054600181600116156101000203166002900461180c9291906118aa565b50600482018160040190805460018160011615610100020316600290046118349291906118aa565b506005820160009054906101000a900460ff168160050160006101000a81548160ff021916908315150217905550505091600601919060060190611763565b5b5090506118819190611931565b5090565b6118a791905b808211156118a357600081600090555060010161188b565b5090565b90565b828054600181600116156101000203166002900490600052602060002090601f016020900481019282601f106118e35780548555611920565b8280016001018555821561192057600052602060002091601f016020900482015b8281111561191f578254825591600101919060010190611904565b5b50905061192d9190611885565b5090565b6119b191905b808211156119ad576000808201600061195091906119b4565b60018201600061196091906119b4565b60028201600061197091906119b4565b60038201600061198091906119b4565b60048201600061199091906119b4565b6005820160006101000a81549060ff021916905550600601611937565b5090565b90565b50805460018160011615610100020316600290046000825580601f106119da57506119f9565b601f0160209004906000526020600020908101906119f89190611885565b5b5056fea165627a7a7230582038f1d18e58ba50e684e26e126571bda5afb09a50011631c278a16e986648d46d0029",
  "source": "pragma solidity ^0.5.0;\ncontract Loan {\n    address public lender;\n    address public borrower;\n    struct RePayment {\n        string date;\n        string balance;\n        string payment;\n        string interest;\n        string principal;\n        bool monthToIsPaid;\n    }\n\n    RePayment[] public rePayments;\n    mapping(address => RePayment[]) public borrowerToRePayments;\n    mapping(address => address) public borrowerToLender;\n\n    modifier onlyLender() {\n        require(msg.sender == lender);\n        _;\n    }\n\n    modifier onlyBorrower() {\n        require(msg.sender == borrower);\n        _;\n    }\n\n    modifier minimumAndMaximumTenor(bytes32[] memory _bytes32Arr) {\n        require(_bytes32Arr.length >= (6 * 5) && _bytes32Arr.length <= (20 * 5));\n        _;\n    }\n\n    constructor(address _borrower) public {\n        lender = msg.sender;\n        borrower = _borrower;\n        borrowerToLender[borrower] = msg.sender;\n    }\n\n    function addAllRepaymentSchedules(bytes32[] memory _bytes32Arr) public onlyLender minimumAndMaximumTenor(_bytes32Arr) {\n        for (uint i = 0; i < _bytes32Arr.length - 5; i+=5) {\n            string memory date = bytes32ToString(_bytes32Arr[i]);\n            string memory balance = bytes32ToString(_bytes32Arr[i + 1]);\n            string memory payment = bytes32ToString(_bytes32Arr[i + 2]);\n            string memory interest = bytes32ToString(_bytes32Arr[i + 3]);\n            string memory principal = bytes32ToString(_bytes32Arr[i + 4]);\n            rePayments.push(RePayment(date, balance, payment, interest, principal, false)) - 1;\n        }\n        borrowerToRePayments[borrower] = rePayments;\n    }\n\n    function checkRepaymentStatus(uint _month) public view returns (bool) {\n        return borrowerToRePayments[borrower][_month].monthToIsPaid;\n    }\n\n    function markRePaymentAsPaid(uint _month) onlyLender public  {\n        borrowerToRePayments[borrower][_month].monthToIsPaid = true;\n        rePayments[_month].monthToIsPaid = true;\n    }\n\n    function bytes32ToString(bytes32 _data) pure public returns (string memory) {\n        // create new bytes with a length of 32\n        // needs to be bytes type rather than bytes32 in order to be writeable\n        bytes memory _bytesContainer = new bytes(32);\n        // uint to keep track of actual character length of string\n        // bytes32 is always 32 characters long the string may be shorter\n        uint256 _charCount = 0;\n        // loop through every element in bytes32\n        for (uint256 _bytesCounter = 0; _bytesCounter < 32; _bytesCounter++) {\n            /*\n            TLDR: takes a single character from bytes based on counter\n            convert bytes32 data to uint in order to increase the number enough to\n            shift bytes further left while pushing out leftmost bytes\n            then convert uint256 data back to bytes32\n            then convert to bytes1 where everything but the leftmost hex value (byte)\n            is cutoff leaving only the leftmost byte\n            */\n            bytes1 _char = bytes1(bytes32(uint256(_data) * 2 ** (8 * _bytesCounter)));\n            // if the character is not empty\n            if (_char != 0) {\n              // add to bytes representing string\n              _bytesContainer[_charCount] = _char;\n              // increment count so we know length later\n              _charCount++;\n            }\n        }\n\n        // create dynamically sized bytes array to use for trimming\n        bytes memory _bytesContainerTrimmed = new bytes(_charCount);\n\n        // loop through for character length of string\n        for (uint256 _charCounter = 0; _charCounter < _charCount; _charCounter++) {\n            // add each character to trimmed bytes container, leaving out extra\n            _bytesContainerTrimmed[_charCounter] = _bytesContainer[_charCounter];\n         }\n\n        // return correct length string with no padding\n        return string(_bytesContainerTrimmed);\n    }\n}\n",
  "sourcePath": "/Users/dju/Documents/inside document/danacita/credit-line-smart-contract-react/contracts/Loan.sol",
  "compiler": {
    "name": "solc",
    "version": "0.5.0+commit.1d4f565a.Emscripten.clang"
  },
  "schemaVersion": "3.0.3",
  "updatedAt": "2019-03-15T10:45:33.278Z",
  "devdoc": {
    "methods": {}
  },
  "userdoc": {
    "methods": {}
  }
}